{
  "contractName": "EventTickets",
  "abi": [
    {
      "inputs": [
        {
          "internalType": "string",
          "name": "_description",
          "type": "string"
        },
        {
          "internalType": "string",
          "name": "_website",
          "type": "string"
        },
        {
          "internalType": "uint256",
          "name": "_totalTickets",
          "type": "uint256"
        }
      ],
      "payable": false,
      "stateMutability": "nonpayable",
      "type": "constructor"
    },
    {
      "anonymous": false,
      "inputs": [
        {
          "indexed": false,
          "internalType": "address",
          "name": "",
          "type": "address"
        },
        {
          "indexed": false,
          "internalType": "uint256",
          "name": "",
          "type": "uint256"
        }
      ],
      "name": "LogBuyTickets",
      "type": "event"
    },
    {
      "anonymous": false,
      "inputs": [
        {
          "indexed": false,
          "internalType": "address",
          "name": "",
          "type": "address"
        },
        {
          "indexed": false,
          "internalType": "uint256",
          "name": "",
          "type": "uint256"
        }
      ],
      "name": "LogEndSale",
      "type": "event"
    },
    {
      "anonymous": false,
      "inputs": [
        {
          "indexed": false,
          "internalType": "address",
          "name": "",
          "type": "address"
        },
        {
          "indexed": false,
          "internalType": "uint256",
          "name": "",
          "type": "uint256"
        }
      ],
      "name": "LogGetRefund",
      "type": "event"
    },
    {
      "constant": true,
      "inputs": [],
      "name": "owner",
      "outputs": [
        {
          "internalType": "address payable",
          "name": "",
          "type": "address"
        }
      ],
      "payable": false,
      "stateMutability": "view",
      "type": "function"
    },
    {
      "constant": true,
      "inputs": [],
      "name": "readEvent",
      "outputs": [
        {
          "internalType": "string",
          "name": "description",
          "type": "string"
        },
        {
          "internalType": "string",
          "name": "website",
          "type": "string"
        },
        {
          "internalType": "uint256",
          "name": "totalTickets",
          "type": "uint256"
        },
        {
          "internalType": "uint256",
          "name": "sales",
          "type": "uint256"
        },
        {
          "internalType": "bool",
          "name": "isOpen",
          "type": "bool"
        }
      ],
      "payable": false,
      "stateMutability": "view",
      "type": "function"
    },
    {
      "constant": true,
      "inputs": [
        {
          "internalType": "address",
          "name": "_buyer",
          "type": "address"
        }
      ],
      "name": "getBuyerTicketCount",
      "outputs": [
        {
          "internalType": "uint256",
          "name": "buyerTicketCount",
          "type": "uint256"
        }
      ],
      "payable": false,
      "stateMutability": "view",
      "type": "function"
    },
    {
      "constant": false,
      "inputs": [
        {
          "internalType": "uint256",
          "name": "_ticketsPurchased",
          "type": "uint256"
        }
      ],
      "name": "buyTickets",
      "outputs": [],
      "payable": true,
      "stateMutability": "payable",
      "type": "function"
    },
    {
      "constant": false,
      "inputs": [],
      "name": "getRefund",
      "outputs": [],
      "payable": false,
      "stateMutability": "nonpayable",
      "type": "function"
    },
    {
      "constant": false,
      "inputs": [],
      "name": "endSale",
      "outputs": [],
      "payable": false,
      "stateMutability": "nonpayable",
      "type": "function"
    }
  ],
  "bytecode": "0x608060405260646001553480156200001657600080fd5b506040516200103838038062001038833981810160405260608110156200003c57600080fd5b81019080805160405193929190846401000000008211156200005d57600080fd5b838201915060208201858111156200007457600080fd5b82518660018202830111640100000000821117156200009257600080fd5b8083526020830192505050908051906020019080838360005b83811015620000c8578082015181840152602081019050620000ab565b50505050905090810190601f168015620000f65780820380516001836020036101000a031916815260200191505b50604052602001805160405193929190846401000000008211156200011a57600080fd5b838201915060208201858111156200013157600080fd5b82518660018202830111640100000000821117156200014f57600080fd5b8083526020830192505050908051906020019080838360005b838110156200018557808201518184015260208101905062000168565b50505050905090810190601f168015620001b35780820380516001836020036101000a031916815260200191505b5060405260200180519060200190929190505050336000806101000a81548173ffffffffffffffffffffffffffffffffffffffff021916908373ffffffffffffffffffffffffffffffffffffffff1602179055508260026000019080519060200190620002229291906200027a565b5081600260010190805190602001906200023e9291906200027a565b5080600280018190555060006002600301819055506001600260050160006101000a81548160ff02191690831515021790555050505062000329565b828054600181600116156101000203166002900490600052602060002090601f016020900481019282601f10620002bd57805160ff1916838001178555620002ee565b82800160010185558215620002ee579182015b82811115620002ed578251825591602001919060010190620002d0565b5b509050620002fd919062000301565b5090565b6200032691905b808211156200032257600081600090555060010162000308565b5090565b90565b610cff80620003396000396000f3fe6080604052600436106100555760003560e01c806305aea97c1461005a5780632f3666371461016f578063380d831b1461019d5780638da5cb5b146101b4578063b2d5ae441461020b578063edfb916714610222575b600080fd5b34801561006657600080fd5b5061006f610287565b60405180806020018060200186815260200185815260200184151515158152602001838103835288818151815260200191508051906020019080838360005b838110156100c95780820151818401526020810190506100ae565b50505050905090810190601f1680156100f65780820380516001836020036101000a031916815260200191505b50838103825287818151815260200191508051906020019080838360005b8381101561012f578082015181840152602081019050610114565b50505050905090810190601f16801561015c5780820380516001836020036101000a031916815260200191505b5097505050505050505060405180910390f35b61019b6004803603602081101561018557600080fd5b8101908080359060200190929190505050610409565b005b3480156101a957600080fd5b506101b26106d8565b005b3480156101c057600080fd5b506101c96108bf565b604051808273ffffffffffffffffffffffffffffffffffffffff1673ffffffffffffffffffffffffffffffffffffffff16815260200191505060405180910390f35b34801561021757600080fd5b506102206108e4565b005b34801561022e57600080fd5b506102716004803603602081101561024557600080fd5b81019080803573ffffffffffffffffffffffffffffffffffffffff169060200190929190505050610bb0565b6040518082815260200191505060405180910390f35b606080600080600060026000018054600181600116156101000203166002900480601f0160208091040260200160405190810160405280929190818152602001828054600181600116156101000203166002900480156103285780601f106102fd57610100808354040283529160200191610328565b820191906000526020600020905b81548152906001019060200180831161030b57829003601f168201915b5050505050945060026001018054600181600116156101000203166002900480601f0160208091040260200160405190810160405280929190818152602001828054600181600116156101000203166002900480156103c85780601f1061039d576101008083540402835291602001916103c8565b820191906000526020600020905b8154815290600101906020018083116103ab57829003601f168201915b50505050509350600280015492506002600301549150600260050160009054906101000a900460ff1690508484848484945094509450945094509091929394565b6001600260050160006101000a81548160ff021916908315150217905561047b576040517f08c379a0000000000000000000000000000000000000000000000000000000008152600401808060200182810382526027815260200180610c516027913960400191505060405180910390fd5b80600154023410156104d8576040517f08c379a0000000000000000000000000000000000000000000000000000000008152600401808060200182810382526027815260200180610c006027913960400191505060405180910390fd5b80600260030154600280015403101561053c576040517f08c379a000000000000000000000000000000000000000000000000000000000815260040180806020018281038252602a815260200180610c27602a913960400191505060405180910390fd5b80600260040160003373ffffffffffffffffffffffffffffffffffffffff1673ffffffffffffffffffffffffffffffffffffffff16815260200190815260200160002060008282540192505081905550806002600301600082825401925050819055507f72240c1be87ee789414e12fc30844d39a55d1eaf3b8741489fe381ad2b6cdd473382604051808373ffffffffffffffffffffffffffffffffffffffff1673ffffffffffffffffffffffffffffffffffffffff1681526020018281526020019250505060405180910390a180600154023411156106d5573373ffffffffffffffffffffffffffffffffffffffff166108fc826001540234039081150290604051600060405180830381858888f19350505050158015610662573d6000803e3d6000fd5b507f492e1d962a477f77890c7cfdb563d7ddc58fee6505741794fa5700ada3c160413382600154023403604051808373ffffffffffffffffffffffffffffffffffffffff1673ffffffffffffffffffffffffffffffffffffffff1681526020018281526020019250505060405180910390a15b50565b6000809054906101000a900473ffffffffffffffffffffffffffffffffffffffff1673ffffffffffffffffffffffffffffffffffffffff163373ffffffffffffffffffffffffffffffffffffffff161461077d576040517f08c379a0000000000000000000000000000000000000000000000000000000008152600401808060200182810382526027815260200180610ca46027913960400191505060405180910390fd5b6000600260050160006101000a81548160ff0219169083151502179055507f21e7b2f8578199ba3904a63b7cd799784c8cadde57dde563a7de95ef792e256c6000809054906101000a900473ffffffffffffffffffffffffffffffffffffffff163073ffffffffffffffffffffffffffffffffffffffff1631604051808373ffffffffffffffffffffffffffffffffffffffff1673ffffffffffffffffffffffffffffffffffffffff1681526020018281526020019250505060405180910390a16000809054906101000a900473ffffffffffffffffffffffffffffffffffffffff1673ffffffffffffffffffffffffffffffffffffffff166108fc3073ffffffffffffffffffffffffffffffffffffffff16319081150290604051600060405180830381858888f193505050501580156108bc573d6000803e3d6000fd5b50565b6000809054906101000a900473ffffffffffffffffffffffffffffffffffffffff1681565b6000600260040160003373ffffffffffffffffffffffffffffffffffffffff1673ffffffffffffffffffffffffffffffffffffffff168152602001908152602001600020541161097f576040517f08c379a000000000000000000000000000000000000000000000000000000000815260040180806020018281038252602c815260200180610c78602c913960400191505060405180910390fd5b600260040160003373ffffffffffffffffffffffffffffffffffffffff1673ffffffffffffffffffffffffffffffffffffffff1681526020019081526020016000205460028001600082825401925050819055503373ffffffffffffffffffffffffffffffffffffffff166108fc600154600260040160003373ffffffffffffffffffffffffffffffffffffffff1673ffffffffffffffffffffffffffffffffffffffff16815260200190815260200160002054029081150290604051600060405180830381858888f19350505050158015610a5f573d6000803e3d6000fd5b507f492e1d962a477f77890c7cfdb563d7ddc58fee6505741794fa5700ada3c1604133600154600260040160003373ffffffffffffffffffffffffffffffffffffffff1673ffffffffffffffffffffffffffffffffffffffff1681526020019081526020016000205402604051808373ffffffffffffffffffffffffffffffffffffffff1673ffffffffffffffffffffffffffffffffffffffff1681526020018281526020019250505060405180910390a16000600260040160003373ffffffffffffffffffffffffffffffffffffffff1673ffffffffffffffffffffffffffffffffffffffff16815260200190815260200160002081905550600260040160003373ffffffffffffffffffffffffffffffffffffffff1673ffffffffffffffffffffffffffffffffffffffff16815260200190815260200160002054600260030160008282540392505081905550565b6000600260040160008373ffffffffffffffffffffffffffffffffffffffff1673ffffffffffffffffffffffffffffffffffffffff16815260200190815260200160002054905080905091905056fe496e73756666696369656e742066756e647320776572652073656e742077697468206f726465724e6f7420656e6f756768207469636b657473206c65667420746f2066696c6c20796f7572206f726465725469636b65742073616c6573206861766520636c6f73656420666f722074686973206576656e74596f7520686176656e277420707572636861736564207469636b65747320666f722074686973206576656e744d6573736167652073656e646572206973206e6f74206f776e6572206f6620636f6e7472616374a265627a7a723158206c698e96f401fa5b382b4a519f0612db87ddc3478021ff4821985009e6e0958664736f6c634300050c0032",
  "source": "pragma solidity ^0.5.0;\n\n// The EventTickets contract keeps track of the details and ticket sales of one event.\n\ncontract EventTickets {\n\n    // @dev Owner of the contract\n    address payable public owner;\n\n    // @dev Sets price of tickets for event\n    uint TICKET_PRICE = 100 wei;\n\n    // @dev Stores information about the event including ticket buyers\n    // and how many tickets were purchased by each\n    struct Event {\n        string description;\n        string website;\n        uint totalTickets;\n        uint sales;\n        mapping (address => uint) buyerTicketCount;\n        bool isOpen;\n    }\n\n    Event myEvent;\n\n    // @dev Provides information about the purchaser and the number of tickets purchased\n    event LogBuyTickets(address, uint);\n\n    // @dev Provides information about the refund requester and the number of tickets refunded\n    event LogGetRefund(address, uint);\n\n    // @dev Provides the contract owner address and the balance transferred to it when ticket sales conclude\n    event LogEndSale(address, uint);\n\n    // @dev Throws error if the msg.sender is not the owner of the contract\n    modifier onlyOwner {\n        require(msg.sender == owner, \"Message sender is not owner of contract\");\n        _;\n    }\n\n    // @dev Sets owner to the address that instantiated the contract\n    // @dev Sets the appropriate event details\n    constructor(string memory _description, string memory _website, uint _totalTickets) public {\n        owner = msg.sender;\n        myEvent.description = _description;\n        myEvent.website = _website;\n        myEvent.totalTickets = _totalTickets;\n        myEvent.sales = 0;\n        myEvent.isOpen = true;\n    }\n\n    // @dev Returns the details of myEvent\n    function readEvent()\n        public\n        view\n        returns(string memory description, string memory website, uint totalTickets, uint sales, bool isOpen)\n    {\n        description = myEvent.description;\n        website = myEvent.website;\n        totalTickets = myEvent.totalTickets;\n        sales = myEvent.sales;\n        isOpen = myEvent.isOpen;\n        return(description, website, totalTickets, sales, isOpen);\n    }\n\n    // @dev Returns the number of tickets that address has purchased\n    // @param Buyer's address\n    function getBuyerTicketCount(address _buyer)\n        public\n        view\n        returns(uint buyerTicketCount)\n    {\n        buyerTicketCount = myEvent.buyerTicketCount[_buyer];\n        return(buyerTicketCount);\n    }\n\n    // @dev Allows someone to purchase tickets for the event\n    // @param Number of tickets to be purchased\n    function buyTickets(uint _ticketsPurchased)\n        public\n        payable\n    {\n        require(myEvent.isOpen = true, \"Ticket sales have closed for this event\");\n        require(msg.value >= TICKET_PRICE * _ticketsPurchased, \"Insufficient funds were sent with order\");\n        require((myEvent.totalTickets - myEvent.sales) >= _ticketsPurchased, \"Not enough tickets left to fill your order\");\n        myEvent.buyerTicketCount[msg.sender] += _ticketsPurchased;\n        myEvent.sales += _ticketsPurchased;\n        emit LogBuyTickets(msg.sender, _ticketsPurchased);\n        if (msg.value > TICKET_PRICE * _ticketsPurchased) {\n            msg.sender.transfer(msg.value - (TICKET_PRICE * _ticketsPurchased));\n            emit LogGetRefund(msg.sender, msg.value - (TICKET_PRICE * _ticketsPurchased));\n        }\n    }\n\n    // @dev Enables buyer to request refund for tickets they have ordered\n    function getRefund()\n        public\n    {\n        require(myEvent.buyerTicketCount[msg.sender] > 0, \"You haven't purchased tickets for this event\");\n        myEvent.totalTickets += myEvent.buyerTicketCount[msg.sender];\n        msg.sender.transfer(myEvent.buyerTicketCount[msg.sender] * TICKET_PRICE);\n        emit LogGetRefund(msg.sender, myEvent.buyerTicketCount[msg.sender] * TICKET_PRICE);\n        myEvent.buyerTicketCount[msg.sender] = 0;\n        myEvent.sales -= myEvent.buyerTicketCount[msg.sender];\n\n    }\n\n    // @dev Closes ticket sales\n    function endSale()\n        public\n        onlyOwner\n    {\n        myEvent.isOpen = false;\n        emit LogEndSale(owner, address(this).balance);\n        owner.transfer(address(this).balance);\n    }\n}",
  "sourcePath": "/Users/jerryfireman/Projects/consensys-academy/event-ticket-exercise-JerryFireman/contracts/EventTickets.sol",
  "compiler": {
    "name": "solc",
    "version": "0.5.12+commit.7709ece9.Emscripten.clang"
  },
  "schemaVersion": "3.0.19",
  "updatedAt": "2019-12-10T01:49:53.006Z",
  "networkType": "ethereum",
  "devdoc": {
    "methods": {}
  },
  "userdoc": {
    "methods": {}
  }
}