{
  "contractName": "EventTicketsV2",
  "abi": [
    {
      "inputs": [],
      "payable": false,
      "stateMutability": "nonpayable",
      "type": "constructor"
    },
    {
      "anonymous": false,
      "inputs": [
        {
          "indexed": false,
          "internalType": "address",
          "name": "buyer",
          "type": "address"
        },
        {
          "indexed": false,
          "internalType": "uint256",
          "name": "eventId",
          "type": "uint256"
        },
        {
          "indexed": false,
          "internalType": "uint256",
          "name": "numTickets",
          "type": "uint256"
        }
      ],
      "name": "LogBuyTickets",
      "type": "event"
    },
    {
      "anonymous": false,
      "inputs": [
        {
          "indexed": false,
          "internalType": "address",
          "name": "owner",
          "type": "address"
        },
        {
          "indexed": false,
          "internalType": "uint256",
          "name": "balance",
          "type": "uint256"
        },
        {
          "indexed": false,
          "internalType": "uint256",
          "name": "eventId",
          "type": "uint256"
        }
      ],
      "name": "LogEndSale",
      "type": "event"
    },
    {
      "anonymous": false,
      "inputs": [
        {
          "indexed": false,
          "internalType": "string",
          "name": "desc",
          "type": "string"
        },
        {
          "indexed": false,
          "internalType": "string",
          "name": "url",
          "type": "string"
        },
        {
          "indexed": false,
          "internalType": "uint256",
          "name": "ticketsAvailable",
          "type": "uint256"
        },
        {
          "indexed": false,
          "internalType": "uint256",
          "name": "eventId",
          "type": "uint256"
        }
      ],
      "name": "LogEventAdded",
      "type": "event"
    },
    {
      "anonymous": false,
      "inputs": [
        {
          "indexed": false,
          "internalType": "address",
          "name": "accountRefunded",
          "type": "address"
        },
        {
          "indexed": false,
          "internalType": "uint256",
          "name": "eventId",
          "type": "uint256"
        },
        {
          "indexed": false,
          "internalType": "uint256",
          "name": "numTickets",
          "type": "uint256"
        }
      ],
      "name": "LogGetRefund",
      "type": "event"
    },
    {
      "constant": true,
      "inputs": [],
      "name": "idGenerator",
      "outputs": [
        {
          "internalType": "uint256",
          "name": "",
          "type": "uint256"
        }
      ],
      "payable": false,
      "stateMutability": "view",
      "type": "function"
    },
    {
      "constant": true,
      "inputs": [],
      "name": "owner",
      "outputs": [
        {
          "internalType": "address payable",
          "name": "",
          "type": "address"
        }
      ],
      "payable": false,
      "stateMutability": "view",
      "type": "function"
    },
    {
      "constant": false,
      "inputs": [
        {
          "internalType": "string",
          "name": "_description",
          "type": "string"
        },
        {
          "internalType": "string",
          "name": "_website",
          "type": "string"
        },
        {
          "internalType": "uint256",
          "name": "_totalTickets",
          "type": "uint256"
        }
      ],
      "name": "addEvent",
      "outputs": [
        {
          "internalType": "uint256",
          "name": "",
          "type": "uint256"
        }
      ],
      "payable": false,
      "stateMutability": "nonpayable",
      "type": "function"
    },
    {
      "constant": true,
      "inputs": [
        {
          "internalType": "uint256",
          "name": "_eventID",
          "type": "uint256"
        }
      ],
      "name": "readEvent",
      "outputs": [
        {
          "internalType": "string",
          "name": "description",
          "type": "string"
        },
        {
          "internalType": "string",
          "name": "website",
          "type": "string"
        },
        {
          "internalType": "uint256",
          "name": "totalTickets",
          "type": "uint256"
        },
        {
          "internalType": "uint256",
          "name": "sales",
          "type": "uint256"
        },
        {
          "internalType": "bool",
          "name": "isOpen",
          "type": "bool"
        }
      ],
      "payable": false,
      "stateMutability": "view",
      "type": "function"
    },
    {
      "constant": false,
      "inputs": [
        {
          "internalType": "uint256",
          "name": "_eventID",
          "type": "uint256"
        },
        {
          "internalType": "uint256",
          "name": "_ticketsPurchased",
          "type": "uint256"
        }
      ],
      "name": "buyTickets",
      "outputs": [],
      "payable": true,
      "stateMutability": "payable",
      "type": "function"
    },
    {
      "constant": false,
      "inputs": [
        {
          "internalType": "uint256",
          "name": "_eventID",
          "type": "uint256"
        }
      ],
      "name": "getRefund",
      "outputs": [],
      "payable": false,
      "stateMutability": "nonpayable",
      "type": "function"
    },
    {
      "constant": true,
      "inputs": [
        {
          "internalType": "uint256",
          "name": "_eventID",
          "type": "uint256"
        }
      ],
      "name": "getBuyerNumberTickets",
      "outputs": [
        {
          "internalType": "uint256",
          "name": "buyerTicketCount",
          "type": "uint256"
        }
      ],
      "payable": false,
      "stateMutability": "view",
      "type": "function"
    },
    {
      "constant": false,
      "inputs": [
        {
          "internalType": "uint256",
          "name": "_eventID",
          "type": "uint256"
        }
      ],
      "name": "endSale",
      "outputs": [],
      "payable": false,
      "stateMutability": "nonpayable",
      "type": "function"
    }
  ],
  "bytecode": "0x6080604052606460015534801561001557600080fd5b50336000806101000a81548173ffffffffffffffffffffffffffffffffffffffff021916908373ffffffffffffffffffffffffffffffffffffffff1602179055506112d4806100656000396000f3fe60806040526004361061007b5760003560e01c80638da5cb5b1161004e5780638da5cb5b146102bf578063d2f0be9914610316578063e1ba30a914610351578063e7bd92b91461048a5761007b565b806304d1a846146100805780633ddedd38146100bb5780634da19f201461010a5780638627df4614610287575b600080fd5b34801561008c57600080fd5b506100b9600480360360208110156100a357600080fd5b81019080803590602001909291905050506104b5565b005b3480156100c757600080fd5b506100f4600480360360208110156100de57600080fd5b81019080803590602001909291905050506106bc565b6040518082815260200191505060405180910390f35b34801561011657600080fd5b506102716004803603606081101561012d57600080fd5b810190808035906020019064010000000081111561014a57600080fd5b82018360208201111561015c57600080fd5b8035906020019184600183028401116401000000008311171561017e57600080fd5b91908080601f016020809104026020016040519081016040528093929190818152602001838380828437600081840152601f19601f820116905080830192505050505050509192919290803590602001906401000000008111156101e157600080fd5b8201836020820111156101f357600080fd5b8035906020019184600183028401116401000000008311171561021557600080fd5b91908080601f016020809104026020016040519081016040528093929190818152602001838380828437600081840152601f19601f8201169050808301925050505050505091929192908035906020019092919050505061071c565b6040518082815260200191505060405180910390f35b6102bd6004803603604081101561029d57600080fd5b810190808035906020019092919080359060200190929190505050610896565b005b3480156102cb57600080fd5b506102d4610bcc565b604051808273ffffffffffffffffffffffffffffffffffffffff1673ffffffffffffffffffffffffffffffffffffffff16815260200191505060405180910390f35b34801561032257600080fd5b5061034f6004803603602081101561033957600080fd5b8101908080359060200190929190505050610bf1565b005b34801561035d57600080fd5b5061038a6004803603602081101561037457600080fd5b8101908080359060200190929190505050610f4f565b60405180806020018060200186815260200185815260200184151515158152602001838103835288818151815260200191508051906020019080838360005b838110156103e45780820151818401526020810190506103c9565b50505050905090810190601f1680156104115780820380516001836020036101000a031916815260200191505b50838103825287818151815260200191508051906020019080838360005b8381101561044a57808201518184015260208101905061042f565b50505050905090810190601f1680156104775780820380516001836020036101000a031916815260200191505b5097505050505050505060405180910390f35b34801561049657600080fd5b5061049f611129565b6040518082815260200191505060405180910390f35b6000809054906101000a900473ffffffffffffffffffffffffffffffffffffffff1673ffffffffffffffffffffffffffffffffffffffff163373ffffffffffffffffffffffffffffffffffffffff161461055a576040517f08c379a00000000000000000000000000000000000000000000000000000000081526004018080602001828103825260278152602001806112796027913960400191505060405180910390fd5b60006003600083815260200190815260200160002060050160006101000a81548160ff0219169083151502179055507f6497e6dff32a753fe6b3a2b3430e5f86d65c6e35cf360d52eb3494711d7d7a1c6000809054906101000a900473ffffffffffffffffffffffffffffffffffffffff1660015460036000858152602001908152602001600020600301540283604051808473ffffffffffffffffffffffffffffffffffffffff1673ffffffffffffffffffffffffffffffffffffffff168152602001838152602001828152602001935050505060405180910390a16000809054906101000a900473ffffffffffffffffffffffffffffffffffffffff1673ffffffffffffffffffffffffffffffffffffffff166108fc6001546003600085815260200190815260200160002060030154029081150290604051600060405180830381858888f193505050501580156106b8573d6000803e3d6000fd5b5050565b60006003600083815260200190815260200160002060040160003373ffffffffffffffffffffffffffffffffffffffff1673ffffffffffffffffffffffffffffffffffffffff168152602001908152602001600020549050809050919050565b60008060009054906101000a900473ffffffffffffffffffffffffffffffffffffffff1673ffffffffffffffffffffffffffffffffffffffff163373ffffffffffffffffffffffffffffffffffffffff16146107c3576040517f08c379a00000000000000000000000000000000000000000000000000000000081526004018080602001828103825260278152602001806112796027913960400191505060405180910390fd5b336000806101000a81548173ffffffffffffffffffffffffffffffffffffffff021916908373ffffffffffffffffffffffffffffffffffffffff160217905550600060036000600254815260200190815260200160002090508481600001908051906020019061083492919061112f565b508381600101908051906020019061084d92919061112f565b5082816002018190555060018160050160006101000a81548160ff0219169083151502179055506002600081548092919060010191905055506001600254039150509392505050565b60016003600084815260200190815260200160002060050160006101000a81548160ff0219169083151502179055610919576040517f08c379a00000000000000000000000000000000000000000000000000000000081526004018080602001828103825260278152602001806112266027913960400191505060405180910390fd5b8060015402341015610976576040517f08c379a00000000000000000000000000000000000000000000000000000000081526004018080602001828103825260278152602001806111d56027913960400191505060405180910390fd5b80600360008481526020019081526020016000206003015460036000858152602001908152602001600020600201540310156109fd576040517f08c379a000000000000000000000000000000000000000000000000000000000815260040180806020018281038252602a8152602001806111fc602a913960400191505060405180910390fd5b806003600084815260200190815260200160002060040160003373ffffffffffffffffffffffffffffffffffffffff1673ffffffffffffffffffffffffffffffffffffffff168152602001908152602001600020600082825401925050819055508060036000848152602001908152602001600020600301600082825401925050819055507f15827fa78fedf80f93aa72ce61e705b1362cab60ae596b1bb327076fc3856c24338383604051808473ffffffffffffffffffffffffffffffffffffffff1673ffffffffffffffffffffffffffffffffffffffff168152602001838152602001828152602001935050505060405180910390a18060015402341115610bc8573373ffffffffffffffffffffffffffffffffffffffff166108fc826001540234039081150290604051600060405180830381858888f19350505050158015610b4d573d6000803e3d6000fd5b507f73ebb2050cb3ee6869929e7a26925e92e201f14902e155037f1f90af931b3233338383600154023403604051808473ffffffffffffffffffffffffffffffffffffffff1673ffffffffffffffffffffffffffffffffffffffff168152602001838152602001828152602001935050505060405180910390a15b5050565b6000809054906101000a900473ffffffffffffffffffffffffffffffffffffffff1681565b60006003600083815260200190815260200160002060040160003373ffffffffffffffffffffffffffffffffffffffff1673ffffffffffffffffffffffffffffffffffffffff1681526020019081526020016000205411610c9d576040517f08c379a000000000000000000000000000000000000000000000000000000000815260040180806020018281038252602c81526020018061124d602c913960400191505060405180910390fd5b6003600082815260200190815260200160002060040160003373ffffffffffffffffffffffffffffffffffffffff1673ffffffffffffffffffffffffffffffffffffffff1681526020019081526020016000205460036000838152602001908152602001600020600201600082825401925050819055503373ffffffffffffffffffffffffffffffffffffffff166108fc6001546003600085815260200190815260200160002060040160003373ffffffffffffffffffffffffffffffffffffffff1673ffffffffffffffffffffffffffffffffffffffff16815260200190815260200160002054029081150290604051600060405180830381858888f19350505050158015610db1573d6000803e3d6000fd5b507f73ebb2050cb3ee6869929e7a26925e92e201f14902e155037f1f90af931b323333826001546003600086815260200190815260200160002060040160003373ffffffffffffffffffffffffffffffffffffffff1673ffffffffffffffffffffffffffffffffffffffff1681526020019081526020016000205402604051808473ffffffffffffffffffffffffffffffffffffffff1673ffffffffffffffffffffffffffffffffffffffff168152602001838152602001828152602001935050505060405180910390a160006003600083815260200190815260200160002060040160003373ffffffffffffffffffffffffffffffffffffffff1673ffffffffffffffffffffffffffffffffffffffff168152602001908152602001600020819055506003600082815260200190815260200160002060040160003373ffffffffffffffffffffffffffffffffffffffff1673ffffffffffffffffffffffffffffffffffffffff16815260200190815260200160002054600360008381526020019081526020016000206003016000828254039250508190555050565b6060806000806000600360008781526020019081526020016000206000018054600181600116156101000203166002900480601f0160208091040260200160405190810160405280929190818152602001828054600181600116156101000203166002900480156110015780601f10610fd657610100808354040283529160200191611001565b820191906000526020600020905b815481529060010190602001808311610fe457829003601f168201915b50505050509450600360008781526020019081526020016000206001018054600181600116156101000203166002900480601f0160208091040260200160405190810160405280929190818152602001828054600181600116156101000203166002900480156110b25780601f10611087576101008083540402835291602001916110b2565b820191906000526020600020905b81548152906001019060200180831161109557829003601f168201915b5050505050935060036000878152602001908152602001600020600201549250600360008781526020019081526020016000206003015491506003600087815260200190815260200160002060050160009054906101000a900460ff16905084848484849450945094509450945091939590929450565b60025481565b828054600181600116156101000203166002900490600052602060002090601f016020900481019282601f1061117057805160ff191683800117855561119e565b8280016001018555821561119e579182015b8281111561119d578251825591602001919060010190611182565b5b5090506111ab91906111af565b5090565b6111d191905b808211156111cd5760008160009055506001016111b5565b5090565b9056fe496e73756666696369656e742066756e647320776572652073656e742077697468206f726465724e6f7420656e6f756768207469636b657473206c65667420746f2066696c6c20796f7572206f726465725469636b65742073616c6573206861766520636c6f73656420666f722074686973206576656e74596f7520686176656e277420707572636861736564207469636b65747320666f722074686973206576656e744d6573736167652073656e646572206973206e6f74206f776e6572206f6620636f6e7472616374a265627a7a723158205dd6227bc6fbe1590e8dac3591c92ae441283fb8be01939565f1ddaf13e73eb764736f6c634300050c0032",
  "source": "pragma solidity ^0.5.0;\n\n// @dev The EventTicketsV2 contract keeps track of the details and ticket sales of multiple events.\ncontract EventTicketsV2 {\n\n    // @dev Owner of the contract\n    address payable public owner;\n\n    // @dev Sets owner to the address that instantiated the contract\n    constructor() public {\n        owner = msg.sender;\n    }\n\n    uint   PRICE_TICKET = 100 wei;\n\n    // @dev Track event ID numbers\n    uint public idGenerator;\n\n    // @dev Stores information about the event including ticket buyers\n    // and how many tickets were purchased by each\n    struct Event {\n        string description;\n        string website;\n        uint totalTickets;\n        uint sales;\n        mapping (address => uint) buyerTicketCount;\n        bool isOpen;\n    }\n\n    // @dev Keeps track of events\n    mapping (uint => Event) events;\n\n    event LogEventAdded(string desc, string url, uint ticketsAvailable, uint eventId);\n    event LogBuyTickets(address buyer, uint eventId, uint numTickets);\n    event LogGetRefund(address accountRefunded, uint eventId, uint numTickets);\n    event LogEndSale(address owner, uint balance, uint eventId);\n\n    // @dev Throws error if the msg.sender is not the owner of the contract\n    modifier onlyOwner {\n        require(msg.sender == owner, \"Message sender is not owner of contract\");\n        _;\n    }\n\n    function addEvent(string memory _description, string memory _website, uint _totalTickets)\n        public\n        onlyOwner\n        returns (uint)\n    {\n        owner = msg.sender;\n        Event storage newEvent = events[idGenerator];\n        newEvent.description = _description;\n        newEvent.website = _website;\n        newEvent.totalTickets = _totalTickets;\n        newEvent.isOpen = true;\n        idGenerator++;\n        return idGenerator - 1;\n    }\n\n    // @dev Returns the details of event\n    // @param ID of the event\n    function readEvent(uint _eventID)\n        public\n        view\n        returns(string memory description, string memory website, uint totalTickets, uint sales, bool isOpen)\n    {\n        description = events[_eventID].description;\n        website = events[_eventID].website;\n        totalTickets = events[_eventID].totalTickets;\n        sales = events[_eventID].sales;\n        isOpen = events[_eventID].isOpen;\n        return(description, website, totalTickets, sales, isOpen);\n    }\n\n    // @dev Allows someone to purchase tickets for any event\n    // @param ID of the event\n    // @param Number of tickets to be purchased\n    function buyTickets(uint _eventID, uint _ticketsPurchased)\n        public\n        payable\n    {\n        require(events[_eventID].isOpen = true, \"Ticket sales have closed for this event\");\n        require(msg.value >= PRICE_TICKET * _ticketsPurchased, \"Insufficient funds were sent with order\");\n        require((events[_eventID].totalTickets - events[_eventID].sales) >= _ticketsPurchased, \"Not enough tickets left to fill your order\");\n        events[_eventID].buyerTicketCount[msg.sender] += _ticketsPurchased;\n        events[_eventID].sales += _ticketsPurchased;\n        emit LogBuyTickets(msg.sender, _eventID, _ticketsPurchased);\n        if (msg.value > PRICE_TICKET * _ticketsPurchased) {\n            msg.sender.transfer(msg.value - (PRICE_TICKET * _ticketsPurchased));\n            emit LogGetRefund(msg.sender, _eventID, msg.value - (PRICE_TICKET * _ticketsPurchased));\n        }\n    }\n\n    // @dev Enables buyer to request refund for tickets they have ordered\n    function getRefund(uint _eventID)\n        public\n    {\n        require(events[_eventID].buyerTicketCount[msg.sender] > 0, \"You haven't purchased tickets for this event\");\n        events[_eventID].totalTickets += events[_eventID].buyerTicketCount[msg.sender];\n        msg.sender.transfer(events[_eventID].buyerTicketCount[msg.sender] * PRICE_TICKET);\n        emit LogGetRefund(msg.sender, _eventID, events[_eventID].buyerTicketCount[msg.sender] * PRICE_TICKET);\n        events[_eventID].buyerTicketCount[msg.sender] = 0;\n        events[_eventID].sales -= events[_eventID].buyerTicketCount[msg.sender];\n    }\n\n    // @dev Returns the number of tickets that address has purchased\n    // @param The event ID\n    function getBuyerNumberTickets(uint _eventID)\n        public\n        view\n        returns(uint buyerTicketCount)\n    {\n        buyerTicketCount = events[_eventID].buyerTicketCount[msg.sender];\n        return(buyerTicketCount);\n    }\n\n    // @dev Closes ticket sales\n    // @param The event ID\n    function endSale(uint _eventID)\n        public\n        onlyOwner\n    {\n        events[_eventID].isOpen = false;\n        emit LogEndSale(owner, events[_eventID].sales * PRICE_TICKET, _eventID);\n        owner.transfer(events[_eventID].sales * PRICE_TICKET);\n    }\n}",
  "sourcePath": "/Users/jerryfireman/Projects/consensys-academy/event-ticket-exercise-JerryFireman/contracts/EventTicketsV2.sol",
  "compiler": {
    "name": "solc",
    "version": "0.5.12+commit.7709ece9.Emscripten.clang"
  },
  "schemaVersion": "3.0.19",
  "updatedAt": "2019-12-10T01:49:53.019Z",
  "networkType": "ethereum",
  "devdoc": {
    "methods": {}
  },
  "userdoc": {
    "methods": {}
  }
}