{
  "contractName": "EventTickets",
  "abi": [
    {
      "inputs": [
        {
          "internalType": "string",
          "name": "_description",
          "type": "string"
        },
        {
          "internalType": "string",
          "name": "_website",
          "type": "string"
        },
        {
          "internalType": "uint256",
          "name": "_totalTickets",
          "type": "uint256"
        }
      ],
      "payable": false,
      "stateMutability": "nonpayable",
      "type": "constructor"
    },
    {
      "anonymous": false,
      "inputs": [
        {
          "indexed": false,
          "internalType": "address",
          "name": "",
          "type": "address"
        },
        {
          "indexed": false,
          "internalType": "uint256",
          "name": "",
          "type": "uint256"
        }
      ],
      "name": "LogBuyTickets",
      "type": "event"
    },
    {
      "anonymous": false,
      "inputs": [
        {
          "indexed": false,
          "internalType": "address",
          "name": "",
          "type": "address"
        },
        {
          "indexed": false,
          "internalType": "uint256",
          "name": "",
          "type": "uint256"
        }
      ],
      "name": "LogEndSale",
      "type": "event"
    },
    {
      "anonymous": false,
      "inputs": [
        {
          "indexed": false,
          "internalType": "address",
          "name": "",
          "type": "address"
        },
        {
          "indexed": false,
          "internalType": "uint256",
          "name": "",
          "type": "uint256"
        }
      ],
      "name": "LogGetRefund",
      "type": "event"
    },
    {
      "constant": true,
      "inputs": [],
      "name": "owner",
      "outputs": [
        {
          "internalType": "address payable",
          "name": "",
          "type": "address"
        }
      ],
      "payable": false,
      "stateMutability": "view",
      "type": "function"
    },
    {
      "constant": true,
      "inputs": [],
      "name": "readEvent",
      "outputs": [
        {
          "internalType": "string",
          "name": "description",
          "type": "string"
        },
        {
          "internalType": "string",
          "name": "website",
          "type": "string"
        },
        {
          "internalType": "uint256",
          "name": "totalTickets",
          "type": "uint256"
        },
        {
          "internalType": "uint256",
          "name": "sales",
          "type": "uint256"
        },
        {
          "internalType": "bool",
          "name": "isOpen",
          "type": "bool"
        }
      ],
      "payable": false,
      "stateMutability": "view",
      "type": "function"
    },
    {
      "constant": true,
      "inputs": [
        {
          "internalType": "address",
          "name": "buyer",
          "type": "address"
        }
      ],
      "name": "getBuyerTicketCount",
      "outputs": [
        {
          "internalType": "uint256",
          "name": "buyerTicketCount",
          "type": "uint256"
        }
      ],
      "payable": false,
      "stateMutability": "view",
      "type": "function"
    },
    {
      "constant": false,
      "inputs": [
        {
          "internalType": "uint256",
          "name": "ticketsPurchased",
          "type": "uint256"
        }
      ],
      "name": "buyTickets",
      "outputs": [],
      "payable": true,
      "stateMutability": "payable",
      "type": "function"
    }
  ],
  "bytecode": "0x6080604052606460015534801561001557600080fd5b50604051610a93380380610a938339818101604052606081101561003857600080fd5b810190808051604051939291908464010000000082111561005857600080fd5b8382019150602082018581111561006e57600080fd5b825186600182028301116401000000008211171561008b57600080fd5b8083526020830192505050908051906020019080838360005b838110156100bf5780820151818401526020810190506100a4565b50505050905090810190601f1680156100ec5780820380516001836020036101000a031916815260200191505b506040526020018051604051939291908464010000000082111561010f57600080fd5b8382019150602082018581111561012557600080fd5b825186600182028301116401000000008211171561014257600080fd5b8083526020830192505050908051906020019080838360005b8381101561017657808201518184015260208101905061015b565b50505050905090810190601f1680156101a35780820380516001836020036101000a031916815260200191505b5060405260200180519060200190929190505050336000806101000a81548173ffffffffffffffffffffffffffffffffffffffff021916908373ffffffffffffffffffffffffffffffffffffffff160217905550826002600001908051906020019061021092919061023c565b50816002600101908051906020019061022a92919061023c565b508060028001819055505050506102e1565b828054600181600116156101000203166002900490600052602060002090601f016020900481019282601f1061027d57805160ff19168380011785556102ab565b828001600101855582156102ab579182015b828111156102aa57825182559160200191906001019061028f565b5b5090506102b891906102bc565b5090565b6102de91905b808211156102da5760008160009055506001016102c2565b5090565b90565b6107a3806102f06000396000f3fe60806040526004361061003f5760003560e01c806305aea97c146100445780632f366637146101595780638da5cb5b14610187578063edfb9167146101de575b600080fd5b34801561005057600080fd5b50610059610243565b60405180806020018060200186815260200185815260200184151515158152602001838103835288818151815260200191508051906020019080838360005b838110156100b3578082015181840152602081019050610098565b50505050905090810190601f1680156100e05780820380516001836020036101000a031916815260200191505b50838103825287818151815260200191508051906020019080838360005b838110156101195780820151818401526020810190506100fe565b50505050905090810190601f1680156101465780820380516001836020036101000a031916815260200191505b5097505050505050505060405180910390f35b6101856004803603602081101561016f57600080fd5b81019080803590602001909291905050506103c5565b005b34801561019357600080fd5b5061019c610682565b604051808273ffffffffffffffffffffffffffffffffffffffff1673ffffffffffffffffffffffffffffffffffffffff16815260200191505060405180910390f35b3480156101ea57600080fd5b5061022d6004803603602081101561020157600080fd5b81019080803573ffffffffffffffffffffffffffffffffffffffff1690602001909291905050506106a7565b6040518082815260200191505060405180910390f35b606080600080600060026000018054600181600116156101000203166002900480601f0160208091040260200160405190810160405280929190818152602001828054600181600116156101000203166002900480156102e45780601f106102b9576101008083540402835291602001916102e4565b820191906000526020600020905b8154815290600101906020018083116102c757829003601f168201915b5050505050945060026001018054600181600116156101000203166002900480601f0160208091040260200160405190810160405280929190818152602001828054600181600116156101000203166002900480156103845780601f1061035957610100808354040283529160200191610384565b820191906000526020600020905b81548152906001019060200180831161036757829003601f168201915b50505050509350600280015492506002600301549150600260050160009054906101000a900460ff1690508484848484945094509450945094509091929394565b6001600260050160006101000a81548160ff0219169083151502179055610437576040517f08c379a00000000000000000000000000000000000000000000000000000000081526004018080602001828103825260278152602001806107486027913960400191505060405180910390fd5b8060015402341015610494576040517f08c379a00000000000000000000000000000000000000000000000000000000081526004018080602001828103825260278152602001806106f76027913960400191505060405180910390fd5b80600280015410156104f1576040517f08c379a000000000000000000000000000000000000000000000000000000000815260040180806020018281038252602a81526020018061071e602a913960400191505060405180910390fd5b80600260040160003373ffffffffffffffffffffffffffffffffffffffff1673ffffffffffffffffffffffffffffffffffffffff168152602001908152602001600020819055508060028001600082825403925050819055507f72240c1be87ee789414e12fc30844d39a55d1eaf3b8741489fe381ad2b6cdd473382604051808373ffffffffffffffffffffffffffffffffffffffff1673ffffffffffffffffffffffffffffffffffffffff1681526020018281526020019250505060405180910390a18060015402341061067f573373ffffffffffffffffffffffffffffffffffffffff166108fc826001540234039081150290604051600060405180830381858888f1935050505015801561060c573d6000803e3d6000fd5b507f492e1d962a477f77890c7cfdb563d7ddc58fee6505741794fa5700ada3c160413382600154023403604051808373ffffffffffffffffffffffffffffffffffffffff1673ffffffffffffffffffffffffffffffffffffffff1681526020018281526020019250505060405180910390a15b50565b6000809054906101000a900473ffffffffffffffffffffffffffffffffffffffff1681565b6000600260040160008373ffffffffffffffffffffffffffffffffffffffff1673ffffffffffffffffffffffffffffffffffffffff16815260200190815260200160002054905080905091905056fe496e73756666696369656e742066756e647320776572652073656e742077697468206f726465724e6f7420656e6f756768207469636b657473206c65667420746f2066696c6c20796f7572206f726465725469636b65742073616c6573206861766520636c6f73656420666f722074686973206576656e74a265627a7a72315820e16d9ffc84dc660442893f6642dbf39361c4b2107763a81c8cbe53d2b0e56da564736f6c634300050c0032",
  "source": "pragma solidity ^0.5.0;\n\n// The EventTickets contract keeps track of the details and ticket sales of one event.\n\ncontract EventTickets {\n\n    // @dev Owner of the contract\n    address payable public owner;\n\n    // @dev Sets price of tickets for event\n    uint TICKET_PRICE = 100 wei;\n\n    // @dev Stores information about the event including ticket buyers\n    // and how many tickets were purchased by each\n    struct Event {\n        string description;\n        string website;\n        uint totalTickets;\n        uint sales;\n        mapping (address => uint) buyerTicketCount;\n        bool isOpen;\n    }\n\n    Event myEvent;\n\n    // @dev Provides information about the purchaser and the number of tickets purchased\n    event LogBuyTickets(address, uint);\n\n    // @dev Provides information about the refund requester and the number of tickets refunded\n    event LogGetRefund(address, uint);\n\n    // @dev Provides the contract owner address and the balance transferred to it when ticket sales conclude\n    event LogEndSale(address, uint);\n\n    // @dev Throws error if the msg.sender is not the owner of the contract\n    modifier onlyOwner () {\n        require(msg.sender == owner, \"Message sender is not owner of contract\");\n        _;\n    }\n\n    // @dev Sets owner to the address that instantiated the contract\n    // @dev Sets the appropriate event details\n    constructor(string memory _description, string memory _website, uint _totalTickets) public {\n        owner = msg.sender;\n        myEvent.description = _description;\n        myEvent.website = _website;\n        myEvent.totalTickets = _totalTickets;\n    }\n\n    // @dev Returns the details of myEvent\n    function readEvent()\n        public\n        view\n        returns(string memory description, string memory website, uint totalTickets, uint sales, bool isOpen)\n    {\n        description = myEvent.description;\n        website = myEvent.website;\n        totalTickets = myEvent.totalTickets;\n        sales = myEvent.sales;\n        isOpen = myEvent.isOpen;\n        return(description, website, totalTickets, sales, isOpen);\n    }\n\n    // @dev Returns the number of tickets that address has purchased\n    // @param Buyer's address\n    function getBuyerTicketCount(address buyer)\n        public\n        view\n        returns(uint buyerTicketCount)\n    {\n        buyerTicketCount = myEvent.buyerTicketCount[buyer];\n        return(buyerTicketCount);\n    }\n\n    // @dev Allows someone to purchase tickets for the event\n    // @param Number of tickets to be purchased\n    function buyTickets(uint ticketsPurchased)\n        public\n        payable\n    {\n        require(myEvent.isOpen = true, \"Ticket sales have closed for this event\");\n        require(msg.value >= TICKET_PRICE * ticketsPurchased, \"Insufficient funds were sent with order\");\n        require(myEvent.totalTickets >= ticketsPurchased, \"Not enough tickets left to fill your order\");\n        myEvent.buyerTicketCount[msg.sender] = ticketsPurchased;\n        myEvent.totalTickets -= ticketsPurchased;\n        emit LogBuyTickets(msg.sender, ticketsPurchased);\n        if (msg.value >= TICKET_PRICE * ticketsPurchased) {\n            msg.sender.transfer(msg.value - (TICKET_PRICE * ticketsPurchased));\n            emit LogGetRefund(msg.sender, msg.value - (TICKET_PRICE * ticketsPurchased));\n        }\n    }\n}\n\n    //function getRefund()\n\n    /*\n        Define a function called getRefund().\n        This function allows someone to get a refund for tickets for the account they purchased from.\n        TODO:\n            - Check that the requester has purchased tickets.\n            - Make sure the refunded tickets go back into the pool of avialable tickets.\n            - Transfer the appropriate amount to the refund requester.\n            - Emit the appropriate event.\n    */\n\n    /*\n        Define a function called endSale().\n        This function will close the ticket sales.\n        This function can only be called by the contract owner.\n        TODO:\n            - close the event\n            - transfer the contract balance to the owner\n            - emit the appropriate event\n    */\n",
  "sourcePath": "/Users/jerryfireman/Projects/consensys-academy/event-ticket-exercise-JerryFireman/contracts/EventTickets.sol",
  "compiler": {
    "name": "solc",
    "version": "0.5.12+commit.7709ece9.Emscripten.clang"
  },
  "schemaVersion": "3.0.19",
  "updatedAt": "2019-12-06T20:59:57.935Z",
  "networkType": "ethereum",
  "devdoc": {
    "methods": {}
  },
  "userdoc": {
    "methods": {}
  }
}